:020000040800F2
:1000000060070020E10200085115000853150008A0
:100010005515000857150008591500080000000084
:100020000000000000000000000000005B15000858
:100030005D150008000000005F150008611500084C
:10004000FB020008FB020008FB020008FB0200089C
:10005000FB020008FB020008FB020008FB0200088C
:10006000FB020008FB020008FB020008FB0200087C
:10007000FB020008FB020008FB020008FB0200086C
:10008000FB020008FB020008FB020008FB0200085C
:10009000FB020008FB020008FB020008FB0200084C
:1000A000FB020008FB020008FB020008FB0200083C
:1000B000FB020008FB020008FB020008FB0200082C
:1000C000FB020008FB020008FB020008FB0200081C
:1000D000FB02000863150008FB020008FB02000891
:1000E000FB020008FB020008FB02000800F002F817
:1000F00000F03AF80AA090E8000C82448344AAF188
:100100000107DA4501D100F02FF8AFF2090EBAE885
:100110000F0013F0010F18BFFB1A43F0010318473B
:10012000F01F000010200000103A24BF78C878C1EA
:10013000FAD8520724BF30C830C144BF04680C60ED
:10014000704700000023002400250026103A28BF35
:1001500078C1FBD8520728BF30C148BF0B60704739
:100160001FB51FBD10B510BD01F09BFF1146FFF775
:10017000F7FF00F091FF01F0B9FF03B4FFF7F2FFC2
:1001800003BC01F0BDFF00000CB500224C480092FA
:100190000192016841F4803101604FF4A06301686D
:1001A00001F4003101910099491C0091019911B9A4
:1001B00000999942F3D10168890333D50121019156
:1001C00040490A6842F010020A600A6822F00302FD
:1001D0000A600A6842F002020A60416841604168B0
:1001E0004160416841F480614160416821F47C11C3
:1001F0004160416841F4E8114160016841F080715B
:10020000016001688901FCD5416821F0030141606A
:10021000416841F0020141604168C1F38101022956
:10022000FAD10CBD01920CBD254810B5016841F012
:10023000010101604168244A114041600168234A7C
:1002400011400160016821F480210160416821F4BE
:10025000FE0141604FF41F018160FFF795FF1C49CB
:100260004FF00060086010BD154A10B55068194B7A
:1002700010F00C01184803D0042901D0082901D03E
:10028000036012E05168536801F470114FF00204EA
:1002900013F4803F04EB914102D053689B0301D5D6
:1002A0000E4B00E00B4B5943016051680A4AC1F301
:1002B0000311121D515C0268CA40026010BD0000AB
:1002C00000100240002002400000FFF8FFFFF6FE91
:1002D00008ED00E000127A000000002000093D0057
:1002E0000948804709480047FEE7FEE7FEE7FEE7CA
:1002F000FEE7FEE7FEE7FEE7FEE7FEE70448054906
:10030000054A064B7047000029020008ED0000086E
:1003100060010020600700206003002060030020CF
:100320002749084327490860704770B50F23C278F2
:10033000017801244FF0E025DAB1224A126802F474
:10034000E062C2F5E062120AC2F10406D3404278CC
:10035000B24086781E401C4B16433201CA540078C6
:1003600000F01F018C40400905EB8000C0F80041FF
:1003700070BD01F01F008440480905EB8000C0F803
:10038000804170BD114A114001430E48001F0160B9
:1003900070470C4A121D0029116801D0014300E08A
:1003A0008143116070474FF0E0210428086903D0B1
:1003B00020F004000861704740F00400FAE70000F4
:1003C0000000FA050CED00E000E400E080FFFF1FF4
:1003D000FD4A116801F03801014311607047FA4984
:1003E0000A6822F008020A600A6802430A6070473D
:1003F000F5490A6822F010020A600A6802430A609E
:100400007047F148F1494160F14941607047EE4859
:10041000EE494160EE4941607047EB48016941F0A7
:10042000800101617047E848016941F08001016184
:100430007047E5490420CA68D20701D001207047FF
:10044000CA68520701D502207047C968C906FBD5A2
:100450000320704700B50346FFF7EBFF02E0FFF70C
:10046000E8FF5B1E012803D0002B00D1052000BD52
:10047000002BF4D1FAE770B505464FF4302630462C
:10048000FFF7E8FF042811D1CF4C206940F00200AB
:1004900020616561206940F0400020613046FFF72F
:1004A000D9FF216941F6FD721140216170BD30B55F
:1004B0004FF430252846FFF7CDFF042810D1C24C59
:1004C000206940F004002061206940F04000206174
:1004D0002846FFF7BFFF216941F6FB7211402161F9
:1004E00030BD00B50346FFF7A4FF02E0FFF7A1FF10
:1004F0005B1E012803D0002B00D1052000BD002B7E
:10050000F4D1FAE730B54FF430252846FFF7E9FF7C
:10051000042810D1AC4C206940F00400206120690F
:1005200040F0400020612846FFF7DBFF216941F6DB
:10053000FB721140216130BDA3490020C9698907C0
:1005400000D50120704770B5A525FFF7F5FF00B174
:1005500000254FF430263046FFF77CFF042827D1D2
:10056000994C9A48A0609A48A060206940F0200009
:100570002061206940F0400020613046FFF76AFFAB
:1005800041F6EF7604280ED1206941F6DF7108406C
:100590002061206940F0100020618E4805804FF4F2
:1005A0000050FFF757FF052802D021693140216133
:1005B00070BDF8B5064600204FF4005C00900D4673
:1005C0006046FFF747FF042816D17F4C206940F0B2
:1005D0000100206135806046FFF73CFF41F6FE7761
:1005E000042806D1B61C280C009630806046FFF720
:1005F00031FF216939402161F8BDF0B506464FF45D
:1006000000570D463846FFF725FF04280CD16E4CE5
:10061000206940F00100206135803846FFF71AFF5D
:100620002169BA1E11402161F0BDF0B506464FF4B4
:1006300000570D463846FFF70DFF042813D1624CD2
:100640006248A0606248A060206940F0100020610C
:1006500035803846FFF7FEFE052804D0216941F6B3
:10066000EF7211402161F0BD2DE9F041C043C7B2E6
:10067000C0F30726C0F30745040E4FF40058404668
:10068000FFF7E8FE04283CD1DFF83CC14F49CCF825
:1006900008104F49CCF80810DCF8101041F0100198
:1006A000CCF81010FF2F07D04A480830078040468A
:1006B000FFF7D0FE04281BD1FF2E07D045480A3093
:1006C00006804046FFF7C6FE042811D1FF2D07D053
:1006D00040480C3005804046FFF7BCFE042807D197
:1006E000FF2C07D03B480E3004804046FFF7B2FE97
:1006F000052806D0DCF8101041F6EF721140CCF856
:100700001010BDE8F08170B505464FF43026304634
:10071000FFF7A0FE042818D12B4C2C48A0602C48D1
:10072000A060206940F020002061206940F0400076
:1007300020613046FFF78EFE41F6DF71042805D0B8
:10074000052802D022690A40226170BD2069084054
:100750002061206940F0100020611E480DB1002189
:1007600000E0A52101803046FFF774FE0528ECD09B
:10077000216941F6EF721140216170BDF0B5124C54
:100780000746124816460D46A0601148A0604FF477
:10079000005C6046FFF75EFE042814D1206940F03B
:1007A0001000206135430B493D43891C45F0F8009A
:1007B00008806046FFF74EFE052804D0216941F607
:1007C000EF7211402161F0BD002002402301674516
:1007D000AB89EFCD00F8FF1F1C48C0698008704747
:1007E0001A48006A7047194900200968890600D52F
:1007F00001207047154A0029116901D0014300E02A
:1008000081431161704701460020104A012903D03D
:10081000D2680A4203D17047D169C907FBD00120D1
:1008200070470A49C860704708490420CA68D2075F
:1008300001D001207047CA68520701D502207047D5
:10084000C968C906FBD5032070470000002002409C
:100850008E4910B5884206D10121042000F047FAE4
:10086000002104203BE08A49884206D1012108206A
:1008700000F03DFA0021082031E08649884206D187
:100880000121102000F033FA0021102027E08249D6
:10089000884206D10121202000F029FA00212020E1
:1008A0001DE07E49884206D10121402000F01FFA58
:1008B0000021402013E07A49884206D1012180209E
:1008C00000F015FA0021802009E0764988420AD11B
:1008D00084150121204600F00AFA00212046BDE8D7
:1008E000104000F004BA10BD10B50121084600F018
:1008F000FEF90021BDE81040012000F0F8B9F0B584
:10090000CC78002204F00F03E40601D58C78234351
:100910000C784FF00F0C4FF0010EDCB105680E881B
:100920000EFA02F42640A64210D196000CFA06F701
:1009300025EA070703FA06F5CE783D43282E02D0B4
:10094000482E02D002E0446100E00461521C082AF3
:10095000E5D305600A88FF2A1CD94468002202F109
:1009600008060EFA06F50E882E40AE420ED196000D
:100970000CFA06F7BC4303FA06F7CE783C43282E60
:1009800000D14561CE78482E00D10561521C082A5D
:10099000E5D34460F0BD4FF6FF7101800221817004
:1009A0000421C17070470246002092680A4200D0BC
:1009B00001207047806880B2704702460020D268EC
:1009C0000A4200D001207047C06880B270470161C0
:1009D0007047416170470AB10161704741617047DA
:1009E000C160704741F480328261816182618169B6
:1009F000806970472C4B10B51A684FF680742240FE
:100A000042EA00100843186010BD2849C8617047C9
:100A1000F0B5254C002801DAE36900E06368450D74
:100A20002E0185B2C0F30157B540C0F30342032F36
:100A300005D0C6020AD503269640B34307E023F04B
:100A40007062636823F07063636002E0AB4343F05D
:100A5000706201B12A43002801DAE261F0BD6260F0
:100A6000F0BD10B58A0721F003040F49120F21448D
:100A70000F238C6893409C438C608B6890400343A9
:100A80008B6010BD0949DC310860704700080140E7
:100A9000000C01400010014000140140001801400A
:100AA000001C0140002001400000014000002042E5
:100AB000A548016841F0010101604168A34A114065
:100AC00041600168A24A11400160016821F480215F
:100AD0000160416821F4FE0141604FF41F01816013
:100AE000704799490A6822F480320A600A6822F441
:100AF00080220A60B0F5803F07D0B0F5802F03D187
:100B0000086840F4A02008607047086840F480300E
:100B1000F9E70346002059098B4A01290AD0022926
:100B20000AD0516A03F01F02012393400B4200D008
:100B3000012070471168F5E7116AF3E718B5002046
:100B40004FF4A06400903120FFF7E3FF0099491CA7
:100B50000091A14201D00028F5D03120FFF7D9FF44
:100B6000002800D0012018BD774A116821F0F80153
:100B700041EAC00010607047764908607047724BC8
:100B80005A68084322F47C12104358607047714938
:100B9000086670476C4A516821F0030101435160B7
:100BA00070476948406800F00C007047664A516819
:100BB00021F0F001014351607047634A516821F40C
:100BC000E0610143516070475F4A516821F4605110
:100BD00041EAC000506070475B4A0029517A01D059
:100BE000014300E08143517270475A49D83108608F
:100BF0007047554A516821F44041014351607047A4
:100C00005149002281F8202081F82020012802D0BB
:100C1000042802D1052081F8200070474E49086061
:100C2000704749490A6A02430A6270474A4944398F
:100C30000860704730B5444A5168484B11F00C01C8
:100C400003D0042901D0082901D0036012E05168C3
:100C5000536801F470114FF0020413F4803F04EB69
:100C6000914102D053689B0301D53D4B00E03B4BC3
:100C70005943016051680F2303EA1111394B5C5C41
:100C80000168E14041605468072505EA14241C5DB1
:100C900021FA04F48460546805EAD4241B5DD94029
:100CA000C1605268032303EA92322E4B1B1F9A5CE9
:100CB000B1FBF2F1016130BD234A0029516901D035
:100CC000014300E08143516170471F4A0029916947
:100CD00001D0014300E08143916170471A4A002925
:100CE000D16901D0014300E08143D1617047164AC8
:100CF0000029D16801D0014300E08143D1607047F1
:100D0000114A0029116901D0014300E081431161BA
:100D1000704711494039086070470E49C8647047F0
:100D20000949C87170470848416A41F080714162C1
:100D30007047054A0146002092680A4200D001200F
:100D40007047014988727047001002400000FFF8A8
:100D5000FFFFF6FE000042428004424200127A0089
:100D600000093D0018000020C64910B588420AD18C
:100D700001218C032046FFF7BAFF2046BDE8104052
:100D80000021FFF7B4BFC049884202D101214C04C1
:100D900010E0BE49884202D101218C040AE0BC491E
:100DA000884202D10121CC0404E0BA4988420AD128
:100DB00001210C052046FFF7A3FF2046BDE81040A7
:100DC0000021FFF79DBF10BD30B50446008A85B0F5
:100DD0000D464CF6FF710840E98801432182A08945
:100DE0004EF6F3110840A9882A8911436A89024303
:100DF0001143A181A08A4FF6FF410840A989014310
:100E0000A1826846FFF716FF9E48844201D10398ED
:100E100000E00298A1890904002900EBC00101EB60
:100E20000010296802DA4FEA410101E04FEA81012E
:100E3000B0FBF1F06422B0FBF2F14FEA01114FEA8E
:100E400011136FF018056B4300EB8300A3891D0499
:100E50004FF0320306D503EBC000B0FBF2F000F018
:100E6000070005E003EB0010B0FBF2F000F00F000C
:100E70000843208105B030BD4FF4165101600021B8
:100E80008180C18001810C2242818181704710B52F
:100E9000028A4FF2FF031A400B884C8823438C8848
:100EA000C9880C4323431343038210BD00210180F2
:100EB00041808180C18070470029818902D041F43E
:100EC000005101E021F400518181704710B5C1F358
:100ED000421301F01F040121A140012B07D0022B76
:100EE00007D01430002A026805D00A4304E00C3011
:100EF000F8E71030F6E78A43026010BD002A828AC4
:100F000001D00A4300E08A4382827047028A22F0BD
:100F10000F020282028A0A4302827047828922F407
:100F20000062828182890A43828170470029818917
:100F300002D041F0020101E021F0020181817047FD
:100F4000028A22F020020282028A0A430282704749
:100F50000029018A02D041F4804101E021F480415E
:100F600001827047C1F30801818070478088C0F317
:100F700008007047818941F0010181817047028B2F
:100F8000D2B20283028B42EA012101837047028BB5
:100F900002F47F420283028B0A43028370470029D6
:100FA000818A02D041F0200101E021F020018182FC
:100FB00070470029818A02D041F0100101E021F040
:100FC0001001818270470029818A02D041F0080116
:100FD00001E021F00801818270470029818902D057
:100FE00041F4004101E0C1F30E0181817047002905
:100FF000818A02D041F4006101E021F40061818224
:101000007047828A22F004028282828A0A438282A4
:1010100070470029818A02D041F0020101E021F0ED
:101020000201818270470246002012880A4200D0E5
:1010300001207047C9430180704770B501F01F055A
:1010400001260024C1F3421306FA05F2012B0FD04A
:10105000022B0FD0838A4FEA11210088134206FA2F
:1010600001F600EA060001D000B10124204670BD5F
:101070008389F0E7038AEEE70A0A01219140C94318
:1010800001807047003801400044004000480040A3
:10109000004C004000500040FFF7C6F800F098FAFE
:1010A00000F0EBFA00F0CEFA00F00CFB00F07BFB56
:1010B0000A2000F019FA192000F0F0FBFA4FDFF8CF
:1010C000EC93FB4DDFF8EC834FF47A7A0024D9F8E7
:1010D00004004E46002874D034603168785C46289D
:1010E0000CD0552874D044286DD042286CD04C28A0
:1010F0006BD052286AD08A2869D04EE1781840789F
:10110000312804D0322816D033283DD045E11320B1
:1011100000F0C4FB122000F0C1FB142000F0BEFB65
:10112000172000F0BBFB122000F0B8FB182000F0E5
:10113000B5FB0C203BE0132000F0B0FB122000F0C8
:10114000ADFB142000F0AAFB172000F0A7FB122033
:1011500000F0A4FB182000F0A1FB0C2000F09EFB87
:101160000C2000F09BFB132000F098FB122000F0F5
:1011700095FB142000F092FB172000F08FFB11204C
:1011800000F08CFB182006E1132000F087FB1220F2
:1011900000F084FB142000F081FB172000F07EFBA0
:1011A000122000F07BFB182000F078FB0B2000F0F1
:1011B00075FB092000F072FB0B2000F06FFB0A208A
:1011C000CFE7F1E004E024E044E0A9E0C9E010E169
:1011D00078184078312804D032280AD033280DD02E
:1011E000DBE00C2000F05AFB092000F057FB0B203D
:1011F0000BE00B2000F052FB0B20CCE00B2000F0AA
:101200004DFB092000F04AFB0C2000F047FB0A20B0
:10121000C1E078184078312804D032280AD0332829
:101220000DD0BAE0102000F039FB0E2000F036FBA4
:1012300010200BE0102000F031FB1020ABE00F205D
:1012400000F02CFB0E2000F029FB0F2000F026FB05
:101250000D20A0E078184078312804D032281CD026
:10126000332831D099E0132000F018FB122000F051
:1012700015FB142000F012FB172000F00FFB1120CB
:1012800000F00CFB182000F009FB0C2000F006FB1E
:10129000092000F003FB0B202FE0132000F0FEFAE2
:1012A000122000F0FBFA142000F0F8FA172000F0EA
:1012B000F5FA112000F0F2FA182000F0EFFA0B20F6
:1012C00000F0ECFA0B201BE0132000F0E7FA1220EC
:1012D00000F0E4FA142000F0E1FA172000F0DEFA42
:1012E000112000F0DBFA182000F0D8FA0B2000F0F3
:1012F000D5FA092000F0D2FA0C2000F0CFFA0A202B
:1013000000F0CCFA132000F0C9FA122000F0C6FA5F
:10131000142000F0C3FA172000F0C0FA12202FE7C3
:1013200078184078312804D032280AD033280DD0DC
:1013300033E0052000F0B2FA072000F0AFFA0620F3
:101340000BE0062000F0AAFA062024E0062000F0B8
:10135000A5FA072000F0A2FA052000F09FFA082065
:1013600019E078184078312804D0322804D0332886
:1013700007D012E0012005E0022000F08FFA0220E1
:1013800009E0022000F08AFA042000F087FA022027
:1013900000F084FA032000F081FA3068801C30608D
:1013A0006428FFF69AAE746098F800004646A128BB
:1013B0002BD0A22842D0A32840D0A4283ED0A528D4
:1013C0005BD0A62878D0A7287FF481AE152000F046
:1013D00065FA142000F062FA3470142000F084F8EA
:1013E000FE21284600F0A6F9A721284600F0A2F920
:1013F0006DE6192000F052FAFE21284600F09AF915
:10140000AA21284600F096F9CDE71A2000F046FA06
:10141000132000F043FA122000F040FA142000F0EC
:101420003DFA172000F03AFA3470142000F05CF80E
:10143000FE21284600F07EF9A121D6E7122000F017
:101440002DFA182000F02AFA132000F027FA1120B4
:1014500000F024FA142000F021FA172000F01EFA00
:10146000142000F041F8FE21284600F063F931789D
:10147000284600F05FF9347029E6122000F00EFAD9
:10148000182000F00BFA132000F008FA152000F0E5
:1014900005FA3470504600F027F8FE21284600F087
:1014A00049F9A521A1E707E0380000202800002025
:1014B0000038014032000020162000F0EFF916201D
:1014C00000F0ECF93470504600F00EF8FE2128468A
:1014D00000F030F9A62188E7401EFDD270474FF496
:1014E000FA50401EFDD2704700B50346002202E0CC
:1014F000FFF7F5FF521C9A42FAD300BD10B56FF00A
:101500000400FEF750FF0F480F490068B0FBF1F0F0
:101510000E49087010BD0D49097848434FF0E0218D
:10152000486100238B61086940F001000861086987
:10153000C20701D0C003FAD5086920F00100086194
:101540008B6170470000002000127A0030000020FC
:101550007047FEE7FEE7FEE7FEE77047704770471B
:10156000704770B5164C40F225512046FFF765FDD7
:10157000002814D02046FFF7F9FC124AC0B201241B
:1015800010719178012907D15070D1780023012979
:1015900006D0AA2811D09370FE2800D1947070BD97
:1015A000094D11786854491C11708A28F4D10748F4
:1015B000046013709370D37070BDD47070BD000060
:1015C0000038014031000020380000202C000020AD
:1015D00010B5FFF76DFA4FF480342046FFF781FA1B
:1015E000FFF7ACFA012822D10220FEF7F1FE10200D
:1015F000FEF7FEFE0020FFF7D9FA0020FFF7E4FA1D
:10160000A011FFF7DAFA4FF4E0112046FFF7B7FA1E
:101610000120FFF7BCFA3920FFF77BFA0028FAD047
:101620000220FFF7B7FAFFF7BCFA0828FBD1012127
:1016300044F20D00FFF749FB0121BDE810400220F4
:10164000FFF74CBB38B54FF40070ADF80000182020
:101650008DF803000320434C8DF8020069462046B4
:10166000FFF74DF92115ADF8001004218DF8031096
:1016700069462046FFF743F938BD38B500214FF0E1
:101680000060FEF77FFE4FF4C060FEF749FE2520A4
:101690008DF8000000248DF801408DF802400125EE
:1016A0008DF803506846FEF740FE1D208DF80000BF
:1016B0008DF801508DF802408DF803506846FEF712
:1016C00034FE38BD10B586B04FF41650009000209F
:1016D000ADF808000C21ADF80A104FF40071ADF818
:1016E0001410ADF80400ADF810001F4CADF8060062
:1016F000ADF80C00ADF81200ADF8160004A92046B4
:10170000FFF7C5FB69462046FFF75EFB012240F26A
:1017100025512046FFF7DAFB40212046FFF78AFCDF
:1017200040212046FFF77FFC01212046FFF7C4FB44
:1017300006B010BD10B5FFF715FC0B4C402120463C
:10174000FFF771FC0028F9D010BD70B50C460546B6
:1017500003E02846FFF7EEFF641C21780029F8D14A
:1017600070BD000000080140003801404FF47A606D
:10177000401EFDD270474FF4FA60401EFDD2704704
:1017800040F2DC50401EFDD2704700B5FFF7EEFF7F
:101790005DF804EBF4E700B5FFF7E8FFFFF7E6FFBD
:1017A0005DF804EBE2E72DE9F84301210420FFF79F
:1017B0008CFA40F2FF10ADF800001025DFF8248409
:1017C0008DF8035003248DF8024069464046FFF728
:1017D00096F801210820FFF778FA4FF60440ADF89B
:1017E00000008DF803508DF802406946FE48FFF76F
:1017F00086F801211020FFF768FA4FF6FF77ADF861
:101800000070FA4E8DF803508DF80240694630465C
:10181000FFF775F801214020FFF757FA4FF6807067
:10182000ADF800008DF803508DF802406946F0488D
:10183000FFF765F801212020FFF747FAADF80070A7
:101840008DF803508DF802406946EA48FFF757F8D3
:1018500001211020FFF739FA4FF4E050ADF80000F5
:1018600004258DF803508DF8024069463046FFF795
:1018700046F80121E048FFF7CBF801210420FFF7EB
:1018800024FA6803ADF800008DF803508DF802408B
:1018900069464046FFF733F8BDE8F8832DE9F05F6D
:1018A00002464FF4005081100711DFF840A3D14CDD
:1018B000CD4DDFF83C8346104FF480694FF4804BE8
:1018C0001B2A25D2DFE802F024FDFCFBFADCC5F977
:1018D000F83D53260E95AD7F69F7F6F5F4F3F2F176
:1018E000F0EFEE00494625462046FFF770F8002449
:1018F00039462846FFF76DF8FFF74DFF3946284671
:10190000FFF765F8FFF747FF641CA4B2322CEFD352
:10191000BDE8F09F494625462046FFF75AF80024C7
:1019200039462846FFF755F8FFF735FF3946284670
:10193000FFF74DF8FFF72FFF641CA4B2322CEFD352
:10194000E6E745464046FFF744F80024314628467E
:10195000FFF73FF8FFF719FF31462846FFF737F842
:10196000FFF713FF641CA4B2D72CEFD3D0E7454692
:101970004046FFF72CF8002431462846FFF729F8A7
:10198000FFF703FF31462846FFF721F8FFF7FDFE7A
:10199000641CA4B2D72CEFD3BAE701462846FFF760
:1019A00018F8002431462846FFF713F8FFF7F3FE36
:1019B00031462846FFF70BF8FFF7EDFE641CA4B292
:1019C000322CEFD3A4E701462846FFF700F80024A5
:1019D00031462846FEF7FDFFFFF7DDFE314628467B
:1019E000FEF7F5FFFFF7D7FE641CA4B2322CEFD34D
:1019F0008EE74FF480717B48FEF7EBFF00245546DD
:101A000039462846FEF7E5FFFFF7BFFE3946284670
:101A1000FEF7DDFFFFF7B9FE641CA4B2D72CEFD3AD
:101A200076E74FF480716F48FEF7D1FF00245546EA
:101A300039462846FEF7CDFFFFF7A7FE3946284670
:101A4000FEF7C5FFFFF7A1FE641CA4B2D72CEFD3AD
:101A50005EE7082125462046FEF7BBFF0024102143
:101A60002846FEF7B6FFFFF796FE10212846FEF740
:101A7000AEFFFFF790FE641CA4B2322CEFD347E711
:101A800008212046FEF7A3FF002510212046FEF77F
:101A9000A0FFFFF780FE10212046FEF798FFFFF71A
:101AA0007AFE0FE090E2D4E1AEE189E13AE160E153
:101AB00010E1EAE0A2E0C5E022E008E07BE064E0BB
:101AC0004DE036E06D1CADB2322DDED320E74FF491
:101AD000004125462046FEF77AFF00245E46314647
:101AE0002846FEF776FFFFF750FE31462846FEF700
:101AF0006EFFFFF74AFE641CA4B2E62CEFD307E7A3
:101B00004FF4004125462046FEF763FF00245E4661
:101B100031462846FEF75DFFFFF737FE314628467F
:101B2000FEF755FFFFF731FE641CA4B2E62CEFD39D
:101B3000EEE62846FEF74DFF00244E463146284685
:101B4000FEF747FFFFF727FE31462846FEF73FFF27
:101B5000FFF721FE641CA4B2322CEFD3D8E628464E
:101B6000FEF735FF00244E4631462846FEF731FF8A
:101B7000FFF711FE31462846FEF729FFFFF70BFE5F
:101B8000641CA4B2322CEFD3C2E680214046FEF79B
:101B900020FF002404212846FEF71BFFFFF7F5FD78
:101BA00004212846FEF713FFFFF7EFFD641CA4B2E3
:101BB000E62CEFD3ACE680214046FEF708FF002478
:101BC00004212846FEF705FFFFF7DFFD0421284624
:101BD000FEF7FDFEFFF7D9FD641CA4B2E62CEFD39F
:101BE00096E6000000080140000C01400010014092
:101BF0000018014000140140000230002E46284623
:101C0000FEF7E7FE082125462046FEF7E2FE002407
:101C10004F4639463046FEF7DCFE10212846FEF7D7
:101C2000D8FEFFF7B8FD39463046FEF7D0FE10214A
:101C30002846FEF7CCFEFFF7AEFD641CA4B2322CA2
:101C4000E7D365E62846FEF7C2FE08212646204671
:101C5000FEF7BDFE00244F4639462846FEF7B9FE82
:101C600010213046FEF7B5FEFFF795FD39462846B0
:101C7000FEF7ADFE10213046FEF7A9FEFFF78BFD03
:101C8000641CA4B2322CE7D342E64FF4004126464E
:101C90002046FEF79CFE80214046FEF798FE002479
:101CA0005F4639463046FEF794FE04212846FEF78B
:101CB00090FEFFF76AFD39463046FEF788FE0421A4
:101CC0002846FEF784FEFFF760FD641CA4B2E62CF4
:101CD000E7D31DE64FF4004126462046FEF779FE85
:101CE00080214046FEF775FE37460024D8462E4632
:101CF000454641463846FEF76CFE04213046FEF765
:101D000068FEFFF742FD29463846FEF760FE0421D3
:101D10003046FEF75CFEFFF738FD641CA4B2E62CEB
:101D2000E6D3F5E50146AA462846FEF750FE4946A9
:101D300025462046FEF74BFEB8462F460024554662
:101D400031462846FEF745FE41463846FEF741FE3D
:101D5000FFF721FD31462846FEF739FE4146384659
:101D6000FEF735FEFFF717FD641CA4B2322CE7D353
:101D7000CEE50146AA462846FEF72BFE49462546F3
:101D80002046FEF726FEB8462F460024554631462B
:101D90002846FEF71EFE41463846FEF71AFEFFF7BC
:101DA000FAFC31462846FEF712FE41463846FEF759
:101DB0000EFEFFF7F0FC641CA4B2322CE7D3A7E5BB
:101DC00045464046FEF705FE4FF48071AF48FEF7EA
:101DD000FEFD0024D04631462846FEF7FAFD39467E
:101DE0004046FEF7F6FDFFF7D0FC31462846FEF7E9
:101DF000EEFD39464046FEF7EAFDFFF7C6FC641CDF
:101E0000A4B2D72CE7D383E545464046FEF7DFFD75
:101E10004FF480719D48FEF7DCFD0024B04641463A
:101E20002846FEF7D6FD394656465046FEF7D1FD08
:101E3000FFF7ABFC41462846FEF7C9FD3946304660
:101E4000FEF7C5FDFFF7A1FC641CA4B2D72CE6D3B6
:101E50005EE54FF400618E48FEF7BBFD4FF48071E4
:101E60008A48FEF7B4FD4FF400418A48FEF7AFFD03
:101E700080218748FEF7ABFD0024B046864E4FF424
:101E8000006949463046FEF78EFD012803D13946E8
:101E90003046FEF79EFD4FF480613046FEF783FD2D
:101EA000012803D159467B48FEF793FD4146304651
:101EB000FEF779FD012803D104212846FEF789FDAC
:101EC0004FF4004A51467148FEF76DFD012803D1D9
:101ED00041466F48FEF77DFDFFF757FC4946304607
:101EE000FEF761FD012803D139463046FEF76FFD4C
:101EF0004FF480613046FEF756FD012803D1594664
:101F00006448FEF764FDC14641463046FEF74BFD8E
:101F1000012803D104212846FEF759FD51465B48AC
:101F2000FEF741FD012803D149465948FEF74FFD10
:101F3000FFF72BFC641CA4B2B4F5FA7F9ED3544C7B
:101F40004FF400612046FEF742FDA1154F48FEF711
:101F500040FDDFF840814FF400414046FEF739FD77
:101F600080212046FEF735FDDA46494F0024AB4676
:101F70004FF400713046FEF72CFD51464546404671
:101F8000FEF727FD04215846FEF723FD4946384653
:101F9000FEF71FFDFFF7F9FB4FF400713046FEF727
:101FA00016FD51462846FEF712FD04215846FEF75D
:101FB0000EFD49463846FEF70AFDFFF7E6FB641CB6
:101FC000A4B2282CD4D3A3E4C1464046FEF7FFFCBC
:101FD0004FF480712D48FEF7FCFC4FF400412D4872
:101FE000FEF7F7FC80214846FEF7F3FCD0460024BC
:101FF0004FF4B97A39464046FEF7EBFCFFF7C5FBD4
:1020000039464046FEF7E3FCFFF7BFFB641CA4B271
:102010005445EFD31F4F0024D8464FF4897A4146E8
:102020003846FEF7D6FCFFF7B0FB41463846FEF7D0
:10203000CEFCFFF7AAFB641CA4B25445EFD90024E0
:102040004FF49D7704212846FEF7C3FCFFF79DFB64
:1020500004212846FEF7BBFCFFF797FB641CA4B2E3
:10206000BC42EFD900244D4631462846FEF7B1FC6C
:10207000FFF78BFB31462846FEF7A9FCFFF785FBEF
:10208000641CA4B2D82CEFD342E400000008014045
:1020900000180140001401400010014070477047D3
:1020A0007047754600F028F8AE460500694653466D
:1020B00020F00700854618B020B5FEF71FF9BDE8EF
:1020C00020404FF000064FF000074FF000084FF09F
:1020D000000B21F00701AC46ACE8C009ACE8C00930
:1020E000ACE8C009ACE8C0098D4670470446AFF3C0
:1020F00000802046FEF741F80048704700010020AC
:1021000001491820ABBEFEE7260002007047000020
:1021100030210008000000203800000028010008DD
:10212000682100083800002028070000440100084A
:1021300000A24A04000000000000000001020304A5
:102140000607080902040608000000000102030453
:102150000102030406070809000000000000000057
:08216000000000000000000077
:04000005080000ED02
:00000001FF
